{"abi":[{"type":"constructor","inputs":[{"internalType":"address","name":"vaddr","type":"address"}]},{"type":"function","name":"verify","inputs":[{"internalType":"uint256[5]","name":"pub_ins","type":"uint256[5]"},{"internalType":"bytes","name":"proof","type":"bytes"}],"outputs":[],"stateMutability":"nonpayable"}],"bytecode":{"object":"608060405234801561001057600080fd5b50604051610376380380610376833981810160405281019061003291906100db565b806000806101000a81548173ffffffffffffffffffffffffffffffffffffffff021916908373ffffffffffffffffffffffffffffffffffffffff16021790555050610108565b600080fd5b600073ffffffffffffffffffffffffffffffffffffffff82169050919050565b60006100a88261007d565b9050919050565b6100b88161009d565b81146100c357600080fd5b50565b6000815190506100d5816100af565b92915050565b6000602082840312156100f1576100f0610078565b5b60006100ff848285016100c6565b91505092915050565b61025f806101176000396000f3fe608060405234801561001057600080fd5b506004361061002b5760003560e01c8063839ded6514610030575b600080fd5b61004a600480360381019061004591906101c9565b61004c565b005b610089565b6308c379a060e01b60005260206004528060445260005b811561007f578160081b9150600181019050610068565b8060245260646000fd5b600054803b600081036100c0576100bf7f76657269666965722d6d697373696e6700000000000000000000000000000000610051565b5b5060006004810160056020028082016020810160208101803603808501604051868882378681018385823760008084848e5afa8060008103610126576101257f766572696669636174696f6e2d6661696c656400000000000000000000000000610051565b5b50505050505050505050505050505050565b600080fd5b600080fd5b600080fd5b60008190508260206005028201111561016357610162610142565b5b92915050565b600080fd5b600080fd5b60008083601f84011261018957610188610169565b5b8235905067ffffffffffffffff8111156101a6576101a561016e565b5b6020830191508360018202830111156101c2576101c1610142565b5b9250929050565b600080600060c084860312156101e2576101e1610138565b5b60006101f086828701610147565b93505060a084013567ffffffffffffffff8111156102115761021061013d565b5b61021d86828701610173565b9250925050925092509256fea264697066735822122087543c74d71f34fd2756058284e9415c57e64a2115b962f8be969bfb8996924964736f6c63430008110033","opcodes":"PUSH1 0x80 PUSH1 0x40 MSTORE CALLVALUE DUP1 ISZERO PUSH2 0x10 JUMPI PUSH1 0x0 DUP1 REVERT JUMPDEST POP PUSH1 0x40 MLOAD PUSH2 0x376 CODESIZE SUB DUP1 PUSH2 0x376 DUP4 CODECOPY DUP2 DUP2 ADD PUSH1 0x40 MSTORE DUP2 ADD SWAP1 PUSH2 0x32 SWAP2 SWAP1 PUSH2 0xDB JUMP JUMPDEST DUP1 PUSH1 0x0 DUP1 PUSH2 0x100 EXP DUP2 SLOAD DUP2 PUSH20 0xFFFFFFFFFFFFFFFFFFFFFFFFFFFFFFFFFFFFFFFF MUL NOT AND SWAP1 DUP4 PUSH20 0xFFFFFFFFFFFFFFFFFFFFFFFFFFFFFFFFFFFFFFFF AND MUL OR SWAP1 SSTORE POP POP PUSH2 0x108 JUMP JUMPDEST PUSH1 0x0 DUP1 REVERT JUMPDEST PUSH1 0x0 PUSH20 0xFFFFFFFFFFFFFFFFFFFFFFFFFFFFFFFFFFFFFFFF DUP3 AND SWAP1 POP SWAP2 SWAP1 POP JUMP JUMPDEST PUSH1 0x0 PUSH2 0xA8 DUP3 PUSH2 0x7D JUMP JUMPDEST SWAP1 POP SWAP2 SWAP1 POP JUMP JUMPDEST PUSH2 0xB8 DUP2 PUSH2 0x9D JUMP JUMPDEST DUP2 EQ PUSH2 0xC3 JUMPI PUSH1 0x0 DUP1 REVERT JUMPDEST POP JUMP JUMPDEST PUSH1 0x0 DUP2 MLOAD SWAP1 POP PUSH2 0xD5 DUP2 PUSH2 0xAF JUMP JUMPDEST SWAP3 SWAP2 POP POP JUMP JUMPDEST PUSH1 0x0 PUSH1 0x20 DUP3 DUP5 SUB SLT ISZERO PUSH2 0xF1 JUMPI PUSH2 0xF0 PUSH2 0x78 JUMP JUMPDEST JUMPDEST PUSH1 0x0 PUSH2 0xFF DUP5 DUP3 DUP6 ADD PUSH2 0xC6 JUMP JUMPDEST SWAP2 POP POP SWAP3 SWAP2 POP POP JUMP JUMPDEST PUSH2 0x25F DUP1 PUSH2 0x117 PUSH1 0x0 CODECOPY PUSH1 0x0 RETURN INVALID PUSH1 0x80 PUSH1 0x40 MSTORE CALLVALUE DUP1 ISZERO PUSH2 0x10 JUMPI PUSH1 0x0 DUP1 REVERT JUMPDEST POP PUSH1 0x4 CALLDATASIZE LT PUSH2 0x2B JUMPI PUSH1 0x0 CALLDATALOAD PUSH1 0xE0 SHR DUP1 PUSH4 0x839DED65 EQ PUSH2 0x30 JUMPI JUMPDEST PUSH1 0x0 DUP1 REVERT JUMPDEST PUSH2 0x4A PUSH1 0x4 DUP1 CALLDATASIZE SUB DUP2 ADD SWAP1 PUSH2 0x45 SWAP2 SWAP1 PUSH2 0x1C9 JUMP JUMPDEST PUSH2 0x4C JUMP JUMPDEST STOP JUMPDEST PUSH2 0x89 JUMP JUMPDEST PUSH4 0x8C379A0 PUSH1 0xE0 SHL PUSH1 0x0 MSTORE PUSH1 0x20 PUSH1 0x4 MSTORE DUP1 PUSH1 0x44 MSTORE PUSH1 0x0 JUMPDEST DUP2 ISZERO PUSH2 0x7F JUMPI DUP2 PUSH1 0x8 SHL SWAP2 POP PUSH1 0x1 DUP2 ADD SWAP1 POP PUSH2 0x68 JUMP JUMPDEST DUP1 PUSH1 0x24 MSTORE PUSH1 0x64 PUSH1 0x0 REVERT JUMPDEST PUSH1 0x0 SLOAD DUP1 EXTCODESIZE PUSH1 0x0 DUP2 SUB PUSH2 0xC0 JUMPI PUSH2 0xBF PUSH32 0x76657269666965722D6D697373696E6700000000000000000000000000000000 PUSH2 0x51 JUMP JUMPDEST JUMPDEST POP PUSH1 0x0 PUSH1 0x4 DUP2 ADD PUSH1 0x5 PUSH1 0x20 MUL DUP1 DUP3 ADD PUSH1 0x20 DUP2 ADD PUSH1 0x20 DUP2 ADD DUP1 CALLDATASIZE SUB DUP1 DUP6 ADD PUSH1 0x40 MLOAD DUP7 DUP9 DUP3 CALLDATACOPY DUP7 DUP2 ADD DUP4 DUP6 DUP3 CALLDATACOPY PUSH1 0x0 DUP1 DUP5 DUP5 DUP15 GAS STATICCALL DUP1 PUSH1 0x0 DUP2 SUB PUSH2 0x126 JUMPI PUSH2 0x125 PUSH32 0x766572696669636174696F6E2D6661696C656400000000000000000000000000 PUSH2 0x51 JUMP JUMPDEST JUMPDEST POP POP POP POP POP POP POP POP POP POP POP POP POP POP POP POP JUMP JUMPDEST PUSH1 0x0 DUP1 REVERT JUMPDEST PUSH1 0x0 DUP1 REVERT JUMPDEST PUSH1 0x0 DUP1 REVERT JUMPDEST PUSH1 0x0 DUP2 SWAP1 POP DUP3 PUSH1 0x20 PUSH1 0x5 MUL DUP3 ADD GT ISZERO PUSH2 0x163 JUMPI PUSH2 0x162 PUSH2 0x142 JUMP JUMPDEST JUMPDEST SWAP3 SWAP2 POP POP JUMP JUMPDEST PUSH1 0x0 DUP1 REVERT JUMPDEST PUSH1 0x0 DUP1 REVERT JUMPDEST PUSH1 0x0 DUP1 DUP4 PUSH1 0x1F DUP5 ADD SLT PUSH2 0x189 JUMPI PUSH2 0x188 PUSH2 0x169 JUMP JUMPDEST JUMPDEST DUP3 CALLDATALOAD SWAP1 POP PUSH8 0xFFFFFFFFFFFFFFFF DUP2 GT ISZERO PUSH2 0x1A6 JUMPI PUSH2 0x1A5 PUSH2 0x16E JUMP JUMPDEST JUMPDEST PUSH1 0x20 DUP4 ADD SWAP2 POP DUP4 PUSH1 0x1 DUP3 MUL DUP4 ADD GT ISZERO PUSH2 0x1C2 JUMPI PUSH2 0x1C1 PUSH2 0x142 JUMP JUMPDEST JUMPDEST SWAP3 POP SWAP3 SWAP1 POP JUMP JUMPDEST PUSH1 0x0 DUP1 PUSH1 0x0 PUSH1 0xC0 DUP5 DUP7 SUB SLT ISZERO PUSH2 0x1E2 JUMPI PUSH2 0x1E1 PUSH2 0x138 JUMP JUMPDEST JUMPDEST PUSH1 0x0 PUSH2 0x1F0 DUP7 DUP3 DUP8 ADD PUSH2 0x147 JUMP JUMPDEST SWAP4 POP POP PUSH1 0xA0 DUP5 ADD CALLDATALOAD PUSH8 0xFFFFFFFFFFFFFFFF DUP2 GT ISZERO PUSH2 0x211 JUMPI PUSH2 0x210 PUSH2 0x13D JUMP JUMPDEST JUMPDEST PUSH2 0x21D DUP7 DUP3 DUP8 ADD PUSH2 0x173 JUMP JUMPDEST SWAP3 POP SWAP3 POP POP SWAP3 POP SWAP3 POP SWAP3 JUMP INVALID LOG2 PUSH5 0x6970667358 0x22 SLT KECCAK256 DUP8 SLOAD EXTCODECOPY PUSH21 0xD71F34FD2756058284E9415C57E64A2115B962F8BE SWAP7 SWAP12 0xFB DUP10 SWAP7 SWAP3 0x49 PUSH5 0x736F6C6343 STOP ADDMOD GT STOP CALLER ","linkReferences":{}},"deployed_bytecode":{"object":"608060405234801561001057600080fd5b506004361061002b5760003560e01c8063839ded6514610030575b600080fd5b61004a600480360381019061004591906101c9565b61004c565b005b610089565b6308c379a060e01b60005260206004528060445260005b811561007f578160081b9150600181019050610068565b8060245260646000fd5b600054803b600081036100c0576100bf7f76657269666965722d6d697373696e6700000000000000000000000000000000610051565b5b5060006004810160056020028082016020810160208101803603808501604051868882378681018385823760008084848e5afa8060008103610126576101257f766572696669636174696f6e2d6661696c656400000000000000000000000000610051565b5b50505050505050505050505050505050565b600080fd5b600080fd5b600080fd5b60008190508260206005028201111561016357610162610142565b5b92915050565b600080fd5b600080fd5b60008083601f84011261018957610188610169565b5b8235905067ffffffffffffffff8111156101a6576101a561016e565b5b6020830191508360018202830111156101c2576101c1610142565b5b9250929050565b600080600060c084860312156101e2576101e1610138565b5b60006101f086828701610147565b93505060a084013567ffffffffffffffff8111156102115761021061013d565b5b61021d86828701610173565b9250925050925092509256fea264697066735822122087543c74d71f34fd2756058284e9415c57e64a2115b962f8be969bfb8996924964736f6c63430008110033","opcodes":"PUSH1 0x80 PUSH1 0x40 MSTORE CALLVALUE DUP1 ISZERO PUSH2 0x10 JUMPI PUSH1 0x0 DUP1 REVERT JUMPDEST POP PUSH1 0x4 CALLDATASIZE LT PUSH2 0x2B JUMPI PUSH1 0x0 CALLDATALOAD PUSH1 0xE0 SHR DUP1 PUSH4 0x839DED65 EQ PUSH2 0x30 JUMPI JUMPDEST PUSH1 0x0 DUP1 REVERT JUMPDEST PUSH2 0x4A PUSH1 0x4 DUP1 CALLDATASIZE SUB DUP2 ADD SWAP1 PUSH2 0x45 SWAP2 SWAP1 PUSH2 0x1C9 JUMP JUMPDEST PUSH2 0x4C JUMP JUMPDEST STOP JUMPDEST PUSH2 0x89 JUMP JUMPDEST PUSH4 0x8C379A0 PUSH1 0xE0 SHL PUSH1 0x0 MSTORE PUSH1 0x20 PUSH1 0x4 MSTORE DUP1 PUSH1 0x44 MSTORE PUSH1 0x0 JUMPDEST DUP2 ISZERO PUSH2 0x7F JUMPI DUP2 PUSH1 0x8 SHL SWAP2 POP PUSH1 0x1 DUP2 ADD SWAP1 POP PUSH2 0x68 JUMP JUMPDEST DUP1 PUSH1 0x24 MSTORE PUSH1 0x64 PUSH1 0x0 REVERT JUMPDEST PUSH1 0x0 SLOAD DUP1 EXTCODESIZE PUSH1 0x0 DUP2 SUB PUSH2 0xC0 JUMPI PUSH2 0xBF PUSH32 0x76657269666965722D6D697373696E6700000000000000000000000000000000 PUSH2 0x51 JUMP JUMPDEST JUMPDEST POP PUSH1 0x0 PUSH1 0x4 DUP2 ADD PUSH1 0x5 PUSH1 0x20 MUL DUP1 DUP3 ADD PUSH1 0x20 DUP2 ADD PUSH1 0x20 DUP2 ADD DUP1 CALLDATASIZE SUB DUP1 DUP6 ADD PUSH1 0x40 MLOAD DUP7 DUP9 DUP3 CALLDATACOPY DUP7 DUP2 ADD DUP4 DUP6 DUP3 CALLDATACOPY PUSH1 0x0 DUP1 DUP5 DUP5 DUP15 GAS STATICCALL DUP1 PUSH1 0x0 DUP2 SUB PUSH2 0x126 JUMPI PUSH2 0x125 PUSH32 0x766572696669636174696F6E2D6661696C656400000000000000000000000000 PUSH2 0x51 JUMP JUMPDEST JUMPDEST POP POP POP POP POP POP POP POP POP POP POP POP POP POP POP POP JUMP JUMPDEST PUSH1 0x0 DUP1 REVERT JUMPDEST PUSH1 0x0 DUP1 REVERT JUMPDEST PUSH1 0x0 DUP1 REVERT JUMPDEST PUSH1 0x0 DUP2 SWAP1 POP DUP3 PUSH1 0x20 PUSH1 0x5 MUL DUP3 ADD GT ISZERO PUSH2 0x163 JUMPI PUSH2 0x162 PUSH2 0x142 JUMP JUMPDEST JUMPDEST SWAP3 SWAP2 POP POP JUMP JUMPDEST PUSH1 0x0 DUP1 REVERT JUMPDEST PUSH1 0x0 DUP1 REVERT JUMPDEST PUSH1 0x0 DUP1 DUP4 PUSH1 0x1F DUP5 ADD SLT PUSH2 0x189 JUMPI PUSH2 0x188 PUSH2 0x169 JUMP JUMPDEST JUMPDEST DUP3 CALLDATALOAD SWAP1 POP PUSH8 0xFFFFFFFFFFFFFFFF DUP2 GT ISZERO PUSH2 0x1A6 JUMPI PUSH2 0x1A5 PUSH2 0x16E JUMP JUMPDEST JUMPDEST PUSH1 0x20 DUP4 ADD SWAP2 POP DUP4 PUSH1 0x1 DUP3 MUL DUP4 ADD GT ISZERO PUSH2 0x1C2 JUMPI PUSH2 0x1C1 PUSH2 0x142 JUMP JUMPDEST JUMPDEST SWAP3 POP SWAP3 SWAP1 POP JUMP JUMPDEST PUSH1 0x0 DUP1 PUSH1 0x0 PUSH1 0xC0 DUP5 DUP7 SUB SLT ISZERO PUSH2 0x1E2 JUMPI PUSH2 0x1E1 PUSH2 0x138 JUMP JUMPDEST JUMPDEST PUSH1 0x0 PUSH2 0x1F0 DUP7 DUP3 DUP8 ADD PUSH2 0x147 JUMP JUMPDEST SWAP4 POP POP PUSH1 0xA0 DUP5 ADD CALLDATALOAD PUSH8 0xFFFFFFFFFFFFFFFF DUP2 GT ISZERO PUSH2 0x211 JUMPI PUSH2 0x210 PUSH2 0x13D JUMP JUMPDEST JUMPDEST PUSH2 0x21D DUP7 DUP3 DUP8 ADD PUSH2 0x173 JUMP JUMPDEST SWAP3 POP SWAP3 POP POP SWAP3 POP SWAP3 POP SWAP3 JUMP INVALID LOG2 PUSH5 0x6970667358 0x22 SLT KECCAK256 DUP8 SLOAD EXTCODECOPY PUSH21 0xD71F34FD2756058284E9415C57E64A2115B962F8BE SWAP7 SWAP12 0xFB DUP10 SWAP7 SWAP3 0x49 PUSH5 0x736F6C6343 STOP ADDMOD GT STOP CALLER ","linkReferences":{}}}